:100000000C9460000C947F000C947F000C947F0093
:100010000C947F000C947F000C947F000C947F0064
:100020000C947F000C947F000C947F000C947F0054
:100030000C947F000C947F000C947F000C947F0044
:100040000C947F000C947F000C947F000C947F0034
:100050000C9427050C947F000C947F000C947F0077
:100060000C947F000C947F000C947F000C947F0014
:100070000C94B7030C947F000C947F000C947F00C9
:100080000C947F000C947F000C947F00303132334D
:10009000343536373839414243444546007273732C
:1000A000693D256420626174743D25642074656D2A
:1000B000703D2564206D61633D2564200D0A0000BC
:1000C00011241FBECFEFD0E4DEBFCDBF11E0A0E012
:1000D000B1E0E2E2F7E100E00BBF02C007900D9251
:1000E000AE33B107D9F727E0AEE3B1E001C01D920E
:1000F000AD3EB207E1F70E941A080C948F0B0C94E6
:100100000000CF93DF93CDB7DEB70E94FE030E94BD
:10011000B100DF91CF910895CF93DF93CDB7DEB7D4
:100120008BE290E02BE230E0F90120812E7FFC0190
:100130002083DF91CF910895CF93DF93CDB7DEB7C2
:1001400089E290E0FC0180818270DF91CF91089577
:10015000CF93DF93CDB7DEB70E94BC00DF91CF9184
:100160000895CF93DF93CDB7DEB70E946D010E9453
:100170008001DF91CF9108950F931F93CF93DF9369
:10018000CDB7DEB7C055D1090FB6F894DEBF0FBEAC
:10019000CDBF0E946504882309F493C08091430178
:1001A000082F10E00E947804282FC8018556994F27
:1001B000FC01208380914301823080F480914401CE
:1001C000882F90E020914301222F30E02556394FAF
:1001D000F901208186529A4FFC01208380914301CE
:1001E000882381F580914301882F90E08556994FAF
:1001F000FC018081882F90E0909346018093450117
:100200008091450190914601292F2F938F938BE286
:1002100091E0892F8F938BE291E08F93CE0101962D
:10022000892F8F93CE0101968F930E947A080F90A9
:100230000F900F900F900F900F90CE0101960E949B
:10024000860335C080914301813079F48091430168
:10025000882F90E08556994FFC018081882F90E08F
:10026000909348018093470122C080914301282F39
:1002700030E0809145019091460101972817390798
:10028000B1F480914701909148018430910559F46F
:100290008BE290E02BE230E0F901308120E8232767
:1002A000FC012083000010924301109244018091D0
:1002B00043018F5F80934301809144018F5F80935E
:1002C0004401C05BDF4F0FB6F894DEBF0FBECDBF59
:1002D000DF91CF911F910F910895CF93DF93CDB709
:1002E000DEB7109242011092410141E850E060E017
:1002F00070E089E595E00E945208DF91CF91089562
:10030000CF93DF93CDB7DEB741E850E060E070E017
:100310008AE196E00E945208DF91CF910895CF9331
:10032000DF931F92CDB7DEB70E947804898389815D
:10033000882311F480E029C080914101909142010D
:100340008038910514F080E020C0809141019091A7
:100350004201875A9A4F2981FC01208380914101F3
:1003600090914201019690934201809341018981CD
:100370008A3051F469E575E08AE196E00E945908F7
:100380000E946D0181E001C080E00F90DF91CF916C
:100390000895CF93DF9300D000D000D0CDB7DEB763
:1003A0009C838B837E836D831A8219828B819C81CF
:1003B000BC018AE196E00E9460089C0189819A81D3
:1003C0002817390769F48D819E81009739F08D8156
:1003D0009E8129813A81FC013183208381E001C023
:1003E00080E026960FB6F894DEBF0FBECDBFDF913A
:1003F000CF910895CF93DF93CDB7DEB761970FB656
:10040000F894DEBF0FBECDBF9F878E87798B688B38
:100410008E859F854DE09E012F5F3F4FF901DC01E6
:1004200001900D924A95E1F78E859F8561960FB6F2
:10043000F894DEBF0FBECDBFDF91CF910895CF936B
:10044000DF9300D0CDB7DEB78A838A81813430F064
:100450008A81873418F48A8180628A8319820FC066
:100460008981882F90E080509F4FFC0190818A8184
:10047000981711F4898107C089818F5F89838981E9
:10048000803170F380E80F900F90DF91CF91089545
:10049000CF93DF9300D0CDB7DEB79A83898389816C
:1004A0009A819093DC068093DB060F900F90DF918A
:1004B000CF910895CF93DF93CDB7DEB78DEC90E069
:1004C000FC0110828CEC90E02CE0FC01208389EC94
:1004D00090E029EC30E0F90120812868FC012083BC
:1004E00089EC90E029EC30E0F90120812861FC01E1
:1004F00020838AEC90E02AEC30E0F901208126602C
:10050000FC012083DF91CF910895CF93DF9300D03A
:10051000CDB7DEB79A8389838DEC90E0FC01108221
:100520008CEC90E02CE0FC01208389EC90E029EC3D
:1005300030E0F90120812868FC01208389EC90E0FB
:1005400029EC30E0F90120812861FC0120838AEC4C
:1005500090E02AEC30E0F90120812660FC01208344
:1005600089819A810E9448020F900F90DF91CF916C
:100570000895CF93DF9300D01F92CDB7DEB78B8362
:100580008091490390914A03019691709A838983DF
:1005900020914B0330914C0389819A8128173907A8
:1005A00079F08091490390914A03875B9E4F2B819C
:1005B000FC01208389819A8190934A0380934903A7
:1005C0000F900F900F90DF91CF910895CF93DF930D
:1005D000CDB7DEB744E052E060E070E089E491E03E
:1005E0000E945208DF91CF910895CF93DF93CDB74A
:1005F000DEB78091490390914A03282F80914B03E5
:1006000090914C03922F981B892FDF91CF910895E1
:10061000CF93DF931F92CDB7DEB72091490330917E
:100620004A0380914B0390914C032817390711F42A
:100630008FEF14C080914B0390914C03875B9E4FCA
:10064000FC018081898380914B0390914C0301963A
:10065000917090934C0380934B0389810F90DF91AD
:10066000CF910895CF93DF931F92CDB7DEB78983E3
:10067000000088EC90E0FC018081882F90E080727F
:1006800099270097B1F38EEC90E02981FC0120833B
:100690000F90DF91CF910895CF93DF9300D000D0DA
:1006A00000D0CDB7DEB79C838B837E836D831A82A7
:1006B00019821CC0000088EC90E0FC018081882F2A
:1006C00090E0807299270097B1F38EEC90E0298139
:1006D0003A814B815C81240F351FF9012081FC0197
:1006E000208389819A8101969A83898329813A811D
:1006F0008D819E8128173907ECF226960FB6F89463
:10070000DEBF0FBECDBFDF91CF910895CF93DF93B2
:1007100000D01F92CDB7DEB79B838A838A819B81ED
:10072000FC01808189831AC0000088EC90E0FC0104
:100730008081882F90E0807299270097B1F38EEC2A
:1007400090E02981FC0120838A819B8101969B8313
:100750008A838A819B81FC018081898389818823A6
:1007600019F70F900F900F90DF91CF9108951F927E
:100770000F9200905F000F92112400905B000F9287
:100780002F933F934F935F936F937F938F939F9399
:10079000AF93BF93EF93FF93CF93DF931F92CDB7A8
:1007A000DEB78EEC90E0FC018081898389810E9414
:1007B000B9028091DB069091DC06009739F0209118
:1007C000DB063091DC068981F90109950F90DF91F4
:1007D000CF91FF91EF91BF91AF919F918F917F91B9
:1007E0006F915F914F913F912F910F9000925B001D
:1007F0000F9000925F000F901F901895CF93DF939A
:10080000CDB7DEB785EC90E0FC01108284EC90E07F
:100810002CE0FC01208381EC90E021EC30E0F90138
:1008200020812868FC01208381EC90E021EC30E0FD
:10083000F90120812861FC01208382EC90E022EC08
:1008400030E0F90120812660FC012083DF91CF9107
:100850000895CF93DF9300D01F92CDB7DEB78B837F
:1008600080914D0590914E05019691709A838983F0
:1008700020914F053091500589819A8128173907B9
:1008800079F080914D0590914E05835B9C4F2B81B3
:10089000FC01208389819A8190934E0580934D05B8
:1008A0000F900F900F90DF91CF910895CF93DF932A
:1008B000CDB7DEB744E052E060E070E08DE493E055
:1008C0000E945208DF91CF910895CF93DF93CDB767
:1008D000DEB780914D0590914E05282F80914F05F0
:1008E00090915005922F981B892FDF91CF910895F9
:1008F000CF93DF931F92CDB7DEB720914D05309196
:100900004E0580914F05909150052817390711F435
:100910008FEF14C080914F0590915005835B9C4FE1
:10092000FC018081898380914F059091500501964B
:1009300091709093500580934F0589810F90DF91BE
:10094000CF910895CF93DF931F92CDB7DEB7898300
:10095000000080EC90E0FC018081882F90E08072A4
:1009600099270097B1F386EC90E02981FC01208360
:100970000F90DF91CF910895CF93DF9300D000D0F7
:1009800000D0CDB7DEB79C838B837E836D831A82C4
:1009900019821CC0000080EC90E0FC018081882F4F
:1009A00090E0807299270097B1F386EC90E029815E
:1009B0003A814B815C81240F351FF9012081FC01B4
:1009C000208389819A8101969A83898329813A813A
:1009D0008D819E8128173907ECF226960FB6F89480
:1009E000DEBF0FBECDBFDF91CF910895CF93DF93D0
:1009F00000D01F92CDB7DEB79B838A838A819B810B
:100A0000FC01808189831AC0000080EC90E0FC0129
:100A10008081882F90E0807299270097B1F386EC4F
:100A200090E02981FC0120838A819B8101969B8330
:100A30008A838A819B81FC018081898389818823C3
:100A400019F70F900F900F90DF91CF9108951F929B
:100A50000F9200905F000F92112400905B000F92A4
:100A60002F933F934F935F936F937F938F939F93B6
:100A7000AF93BF93EF93FF93CF93DF9300D0CDB7A6
:100A8000DEB786EC90E0FC018081882F90E09A83AD
:100A9000898389819A810E9429040F900F90DF91A8
:100AA000CF91FF91EF91BF91AF919F918F917F91E6
:100AB0006F915F914F913F912F910F9000925B004A
:100AC0000F9000925F000F901F901895CF93DF93C7
:100AD00000D0CDB7DEB79A83898389819A810E943D
:100AE000D30A0F900F90DF91CF910895CF93DF93AA
:100AF00000D01F92CDB7DEB79A8389836B8389813B
:100B00009A816B810E94DB0A0F900F900F90DF910A
:100B1000CF910895CF93DF93CDB7DEB78AE290E00F
:100B20002AE230E0F90120812062FC0120838AE280
:100B300090E02AE230E0F90120812F7EFC01208341
:100B40008CE40E94E1050E94D40565E070E081E13B
:100B500091E00E944C0388E40E94E1050E94E602B5
:100B6000DF91CF910895CF93DF93CDB7DEB789E2C0
:100B700090E0FC0180818072DF91CF910895CF9346
:100B8000DF93CDB7DEB789E290E0FC018081807110
:100B9000DF91CF910895CF93DF93CDB7DEB70E9459
:100BA0000406DF91CF910895CF93DF93CDB7DEB7E1
:100BB0000E9473070E9486070E94E602DF91CF9190
:100BC0000895CF93DF931F92CDB7DEB789838981D4
:100BD0008C3451F48BE290E02BE230E0F90120817B
:100BE0002F7DFC0120830CC08981883449F48BE27D
:100BF00090E02BE230E0F90120812062FC012083AB
:100C00000F90DF91CF910895CF93DF93CDB7DEB7EB
:100C10008091270190912801009719F08CE40E949F
:100C2000E1050E94F5028823A9F00E949507882318
:100C300089F0109228011092270188E40E94E105B2
:100C40000E942D06882331F083E391E00E94F60490
:100C50000E948607DF91CF910895CF93DF93CDB7A0
:100C6000DEB78091DF06863071F48091DD06803832
:100C700051F481E090E090932801809327010E9435
:100C8000E60281E00BC081E090E090932801809320
:100C900027010E9486070E94E60280E0DF91CF9143
:100CA0000895DF92EF92FF920F931F93CF93DF93FC
:100CB000CDB7DEB7E4970FB6F894DEBF0FBECDBF59
:100CC0009CAB8BAB42E350E060E070E0CE0101965C
:100CD0000E945208EBA9FCA92181328143815481F1
:100CE0006581768187819085EBA9FCA9E384F484F2
:100CF000EBA9FCA901851285EBA9FCA9E081AE2F27
:100D0000B0E0EDE9F0E0D92EDF92D82EDF92D72EB9
:100D1000DF92D62EDF92D52EDF92D42EDF92D32E05
:100D2000DF92822F8F938F2D8F938E2D8F93812F14
:100D30008F93802F8F938B2F8F938A2F8F938F2F4B
:100D40008F938E2F8F93CE010196892F8F93CE0193
:100D500001968F930E94A9088DB79EB742960FB651
:100D6000F894DEBF0FBECDBFCE0101960E94F604FF
:100D7000E4960FB6F894DEBF0FBECDBFDF91CF91E2
:100D80001F910F91FF90EF90DF900895EF92FF92E7
:100D90000F931F93CF93DF93CDB7DEB72B970FB68B
:100DA000F894DEBF0FBECDBF0DB71EB78DB79EB78F
:100DB0007C018091290190912A010E969E838D835A
:100DC0002D813E81C901880F991F820F931F9C01BD
:100DD0002150310938872F832DB73EB7281B390B97
:100DE0000FB6F8943EBF0FBE2DBF8DB79EB70196CC
:100DF0009A8789871A8219821C821B824DC08B8137
:100E00009C818352994FFC01808182958F70882F3D
:100E100090E08A5E9E4FFC0180818B8729853A8510
:100E200089819A81820F931F2B85FC012083898100
:100E30009A8101969A8389838B819C818352994FF1
:100E4000FC018081882F90E08F7099278A5E9E4FE9
:100E5000FC0180818B8729853A8589819A81820F5F
:100E6000931F2B85FC01208389819A8101969A83A7
:100E7000898329853A8589819A81820F931F20E28F
:100E8000FC01208389819A8101969A8389838B81D1
:100E90009C8101969C838B832B813C818D819E81DB
:100EA000281739070CF4ABCF89859A850E94F60480
:100EB0008AE391E00E94F6040FB6F894FEBE0FBEDE
:100EC000EDBE0FB6F8941EBF0FBE0DBF2B960FB62A
:100ED000F894DEBF0FBECDBFDF91CF911F910F9170
:100EE000FF90EF900895CF93DF93CDB7DEB71092C8
:100EF00057051092560541E850E060E070E08CE63E
:100F000097E00E945208DF91CF910895CF93DF932D
:100F1000CDB7DEB741E850E060E070E08DED96E0DF
:100F20000E945208DF91CF910895CF93DF931F92D3
:100F3000CDB7DEB70E940803898380915605909152
:100F400057058233910584F00E9473070E94E602E0
:100F5000109255051092540581E090E0909355054C
:100F60008093540580E055C08091560590915705B7
:100F70008459984F2981FC012083809156059091D6
:100F800057058E30910539F48981882F90E0909330
:100F90002A018093290180915605909157058F3041
:100FA00091054CF0809154059091550501969093D0
:100FB0005505809354052091540530915505809135
:100FC000290190912A0128173907C9F48091560503
:100FD00090915705AC016CE677E08DED96E00E94AC
:100FE00049080E947307109255051092540581E03C
:100FF00090E090932A018093290181E00AC08091BA
:101000005605909157050196909357058093560584
:1010100080E00F90DF91CF910895CF93DF931F92DF
:10102000CDB7DEB789838981809358050F90DF9112
:10103000CF910895CF93DF93CDB7DEB78AE290E0EA
:101040002AE230E0F90120812064FC0120838AE259
:1010500090E02AE230E0F90120812068FC01208341
:1010600084E290E024E230E0F90120812170FC016B
:1010700020838DE098E00E9485020E948A050E94EC
:10108000810078940E94CB050E94A8001092580518
:10109000F9CFFB01DC0102C001900D92415050409C
:1010A000D8F70895DC0101C06D9341505040E0F73E
:1010B0000895FB01DC0101900D920020E1F70895F5
:1010C000FB0151915523A9F0BF01DC014D9145175A
:1010D0004111E1F759F4CD010190002049F04D9103
:1010E00040154111C9F3FB014111EFCF81E090E0C0
:1010F000019708950F931F93CF93DF93CDB7DEB77A
:101100002E970FB6F894DEBF0FBECDBF0D891E8996
:1011100086E08C831A8309838FEF9FE79E838D83FC
:10112000AE01475E5F4F6F89788DCE0101960E94B8
:10113000D808EF81F885E00FF11F10822E960FB6C8
:10114000F894DEBF0FBECDBFDF91CF911F910F91FD
:1011500008950F931F93CF93DF93CDB7DEB72E97EC
:101160000FB6F894DEBF0FBECDBF0D891E898EE08D
:101170008C831A8309838FEF9FE79E838D83AE0153
:10118000475E5F4F6F89788DCE0101960E94D80827
:10119000EF81F885E00FF11F10822E960FB6F894BC
:1011A000DEBF0FBECDBFDF91CF911F910F9108958C
:1011B0002F923F924F925F926F927F928F929F9267
:1011C000AF92BF92CF92DF92EF92FF920F931F9355
:1011D000CF93DF93CDB7DEB72C970FB6F894DEBF71
:1011E0000FBECDBF7C016B018A01FC011782168204
:1011F000838181FFBDC1CE0101964C01F70193812E
:10120000F60193FD859193FF81916F01882309F485
:10121000ABC1853239F493FD859193FF81916F01C4
:10122000853229F4B70190E00E94FF0AE7CF512CE4
:10123000312C20E02032A0F48B3269F030F480327F
:1012400059F0833269F420612CC08D3239F080333B
:1012500039F4216026C02260246023C0286021C0A8
:1012600027FD27C030ED380F3A3078F426FF06C04E
:10127000FAE05F9E300D1124532E13C08AE0389E91
:10128000300D1124332E20620CC08E3221F426FD45
:101290006BC1206406C08C3611F4206802C0883609
:1012A00041F4F60193FD859193FF81916F018111C6
:1012B000C1CF982F9F7D9554933028F40C5F1F4F1A
:1012C000FFE3F9830DC0833631F0833771F0833546
:1012D00009F05BC022C0F801808189830E5F1F4F37
:1012E00044244394512C540115C03801F2E06F0E90
:1012F000711CF801A080B18026FF03C0652D70E04D
:1013000002C06FEF7FEFC5012C870E94F40A2C0109
:1013100083012C852F77222E17C03801F2E06F0E43
:10132000711CF801A080B18026FF03C0652D70E01C
:1013300002C06FEF7FEFC5012C870E94E90A2C01E4
:101340002C852068222E830123FC1BC0832D90E076
:1013500048165906B0F4B70180E290E00E94FF0AF7
:101360003A94F4CFF50127FC859127FE81915F0126
:10137000B70190E00E94FF0A31103A94F1E04F1A51
:1013800051084114510471F7E5C0843611F08936D3
:1013900039F5F80127FF07C060817181828193814F
:1013A0000C5F1F4F08C060817181882777FD809591
:1013B000982F0E5F1F4F2F76B22E97FF09C0909582
:1013C0008095709561957F4F8F4F9F4F2068B22E0B
:1013D0002AE030E0A4010E94310BA82EA81844C0D6
:1013E000853729F42F7EB22E2AE030E025C0F22F77
:1013F000F97FBF2E8F36C1F018F4883579F0B4C06C
:10140000803719F0883721F0AFC02F2F2061B22E1E
:10141000B4FE0DC08B2D8460B82E09C024FF0AC015
:101420009F2F9660B92E06C028E030E005C020E16D
:1014300030E002C020E132E0F801B7FE07C0608171
:101440007181828193810C5F1F4F06C06081718121
:1014500080E090E00E5F1F4FA4010E94310BA82E88
:10146000A818FB2DFF77BF2EB6FE0BC02B2D2E7FAD
:10147000A51450F4B4FE0AC0B2FC08C02B2D2E7E79
:1014800005C07A2C2B2D03C07A2C01C0752C24FFAB
:101490000DC0FE01EA0DF11D8081803311F4297E1B
:1014A00009C022FF06C07394739404C0822F86780B
:1014B00009F0739423FD13C020FF06C05A2C731447
:1014C00018F4530C5718732C731468F4B70180E2A6
:1014D00090E02C870E94FF0A73942C85F5CF73143B
:1014E00010F4371801C0312C24FF12C0B70180E37B
:1014F00090E02C870E94FF0A2C8522FF17C021FF55
:1015000003C088E590E002C088E790E0B7010CC016
:10151000822F867859F021FD02C080E201C08BE263
:1015200027FD8DE2B70190E00E94FF0AA51438F470
:10153000B70180E390E00E94FF0A5A94F7CFAA9483
:10154000F401EA0DF11D8081B70190E00E94FF0ACD
:10155000A110F5CF332009F451CEB70180E290E01D
:101560000E94FF0A3A94F6CFF7018681978102C064
:101570008FEF9FEF2C960FB6F894DEBF0FBECDBF56
:10158000DF91CF911F910F91FF90EF90DF90CF905F
:10159000BF90AF909F908F907F906F905F904F9093
:1015A0003F902F900895F999FECF92BD81BDF89A92
:1015B000992780B50895262FF999FECF1FBA92BDBD
:1015C00081BD20BD0FB6F894FA9AF99A0FBE019624
:1015D0000895FC010590615070400110D8F7809586
:1015E00090958E0F9F1F0895FC01615070400190EF
:1015F0000110D8F7809590958E0F9F1F08950F9337
:101600001F93CF93DF93182F092FEB018B8181FD5F
:1016100003C08FEF9FEF20C082FF10C04E815F811B
:101620002C813D81421753077CF4E881F9819F01A9
:101630002F5F3F4F39832883108306C0E885F985E3
:10164000812F0995892B29F72E813F812F5F3F4FED
:101650003F832E83812F902FDF91CF911F910F9188
:101660000895FA01AA27283051F1203181F1E89438
:101670006F936E7F6E5F7F4F8F4F9F4FAF4FB1E085
:101680003ED0B4E03CD0670F781F891F9A1FA11D80
:10169000680F791F8A1F911DA11D6A0F711D811D81
:1016A000911DA11D20D009F468943F912AE0269F46
:1016B00011243019305D3193DEF6CF010895462FA5
:1016C0004770405D4193B3E00FD0C9F7F6CF462F86
:1016D0004F70405D4A3318F0495D31FD40524193EF
:1016E00002D0A9F7EACFB4E0A695979587957795AC
:1016F0006795BA95C9F700976105710508959B0133
:10170000AC010A2E06945795479537952795BA95BB
:10171000C9F7620F731F841F951FA01D0895F894C9
:02172000FFCFF9
:101722003031323334353637383961626364656655
:101732000000010602013031323334353637383990
:1017420061626364656600010001006C656E3A20A7
:0E1752002564005449434B0D0A000D0A0000A7
:00000001FF
